:020000040000FA
:10700000A8090020657100006D7100006F7100001B
:107010000000000000000000000000000000000070
:10702000000000000000000000000000717100007E
:107030000000000000000000737100007571000086
:1070400077710000777100007771000077710000A0
:107050007771000077710000777100007771000090
:107060007771000077710000777100007771000080
:1070700077710000777100007771000001770000E0
:107080007771000077710000777100007771000060
:107090007771000077710000777100007771000050
:1070A0007771000077710000777100007771000040
:1070B0007771000077710000777100007771000030
:1070C00000F002F800F03EF80CA030C80838241890
:1070D0002D18A246671EAB4654465D46AC4201D110
:1070E00000F030F87E460F3E0FCCB6460126334204
:1070F00000D0FB1AA246AB4633431847A40B00004E
:10710000C40B0000103A02D378C878C1FAD85207ED
:1071100001D330C830C101D504680C60704700004D
:107120000023002400250026103A01D378C1FBD8A3
:10713000520700D330C100D50B6070471FB51FBD8B
:1071400010B510BD00F0F8F81146FFF7F7FF00F09A
:1071500079FB00F010F903B4FFF7F2FF03BC00F075
:1071600017F900000748804707480047FEE7FEE799
:10717000FEE7FEE7FEE7FEE704480549034A054B44
:1071800070470000FD760000C1700000A8010020DB
:10719000A8090020A801002001E004C0091F04295B
:1071A000FBD28B0701D50280801CC90700D002707A
:1071B000704700290BD0C30702D00270401C491E43
:1071C000022904D3830702D50280801C891EE3E7CD
:1071D0000022EEE70022DFE7002203098B422CD3D6
:1071E000030A8B4211D300239C464EE003460B4317
:1071F0003CD4002243088B4231D303098B421CD379
:10720000030A8B4201D394463FE0C3098B4201D36A
:10721000CB01C01A524183098B4201D38B01C01AA2
:10722000524143098B4201D34B01C01A5241030919
:107230008B4201D30B01C01A5241C3088B4201D3C8
:10724000CB00C01A524183088B4201D38B00C01A75
:10725000524143088B4201D34B00C01A5241411A9C
:1072600000D201465241104670475DE0CA0F00D07F
:107270004942031000D34042534000229C46030978
:107280008B422DD3030A8B4212D3FC22890112BAFE
:10729000030A8B420CD3890192118B4208D38901D6
:1072A00092118B4204D389013AD0921100E08909EE
:1072B000C3098B4201D3CB01C01A524183098B42CF
:1072C00001D38B01C01A524143098B4201D34B01B8
:1072D000C01A524103098B4201D30B01C01A52411B
:1072E000C3088B4201D3CB00C01A524183088B42A2
:1072F00001D38B00C01A5241D9D243088B4201D32B
:107300004B00C01A5241411A00D201466346524115
:107310005B10104601D34042002B00D54942704714
:1073200063465B1000D3404201B50020C046C04612
:1073300002BD704770477047754600F025F8AE46AD
:10734000050069465346C008C000854618B020B500
:10735000FFF712FF60BC00274908B6460026C0C5EB
:10736000C0C5C0C5C0C5C0C5C0C5C0C5C0C5403DFD
:1073700049008D46704710B50446C046C0462046B9
:10738000FFF7E9FE10BD00000048704744010020EF
:1073900001491820ABBEFEE726000200704770B519
:1073A00004460D46164600230AE0E05C00F0D4FBDC
:1073B000E05CE95C884201D0012070BD581C83B2BA
:1073C000B342F2DB0020F8E710B502460B4600217D
:1073D000002000BF545C2418E0B24C1CA1B29942BA
:1073E000F8DB10BD0F499322D205116111464860A8
:1073F00000BF9321C9050968202211402029F8D037
:1074000003219322D205D16000BF9321C9050968E9
:10741000202211402029F8D000219322D2051161A9
:10742000704700009966AA550146074A9323DB0579
:107430001A618A0892005A600122DA601A4690683E
:1074400000221A61704700009966AA55104A9323DA
:10745000DB051A61820892005A601A46916000BFEB
:107460009322D205126820231A40202AF8D0022243
:107470009323DB05DA6000BF9322D2051268202334
:107480001A40202AF8D000229323DB051A617047A6
:107490009966AA550A489321C905086108460068FB
:1074A000102108439321C90508600020086100BF2E
:1074B0000348401C05210907886100BF7047000090
:1074C0009966AA5510B5002819DA1A4A03071B0F46
:1074D000083B9B089B00D2588307DC0EFF23A34088
:1074E0009A438B071B0E8407E40EA3401A43114BEB
:1074F0000407240F083CA408A4001A5118E00E4AFF
:1075000003231B02D21883089B00D2588307DC0E8A
:10751000FF23A3409A438B071B0E8407E40EA3406E
:107520001A43054B032424021B198408A4001A5192
:1075300010BD00001CED00E000E100E0FFB581B0EF
:107540000D4616460020009000241BE0A200019981
:107550005018FFF769FF00900098000EA1008919EC
:10756000C87000980002000EA10089198870009868
:107570000004000EA10089194870A1000098705401
:10758000601C84B2E917890F49198910A142DDDC1A
:10759000A20001995018FFF747FF009000270BE069
:1075A000F8001821091A0098C840A100891903227F
:1075B000D21B8854781C87B22846E917890F09180E
:1075C00089108900691AB942EADC05B0F0BD0000F3
:1075D00070B504460D460B4E00BF00F047F800287A
:1075E00000D003E03046761E0028F6D100BF0648E2
:1075F00020430521090748620846456000F03CF831
:1076000070BD0000102700000000695A10B5044644
:1076100005200007846000F02FF810BD0146052208
:107620001207106A8008800002460A43104682B2A0
:10763000024B1A4305231B071A6270470000695A60
:1076400005210907086A0821084381B2024A11434B
:1076500005221207116270470000695A05210907C7
:10766000C968014305221207D16070470520000751
:10767000806AC007C00F7047F8B505200007006A90
:107680008007000F19490F5805200007406A80073E
:10769000800F002801D13C4607E005200007406A22
:1076A0008007800F022800D1114C05200007406898
:1076B0000006C50D002D02D10E48046005E02946E4
:1076C0002046FFF789FD0B49086005200007806808
:1076D0000006C60D002E02D10748046005E03146C1
:1076E0002046FFF779FD04490860F8BD2800002016
:1076F000409C00001C00002020000020704700007B
:107700008920C00500690007000F1149086008467C
:1077100000684008086008460068012802D0022876
:1077200014D103E001200B4908700FE000200A4942
:1077300008808920C0050068C1B208480288008816
:10774000401C064B18800648815400BF00BF70479C
:107750000000002004000020180000200600002087
:1077600038000020FFB581B0044615461E460A9F2A
:10777000A06980098001A061A1692846304338438F
:107780000143A1610449096808090299FFF724FD32
:10779000A06005B0F0BD000020000020FFB581B062
:1077A0000C46164600200090002519E0A800C01CD9
:1077B000305C0006A900891C715C09040843A9001B
:1077C000491C715C09020843A900715C08430090E0
:1077D000AA00019950180099FFF738FE681C85B27D
:1077E000E117890F09198910A942DFDC00200090F8
:1077F00000270DE0A8000321C91B4018305CF900E8
:107800001822511A8840009940180090781C87B2BD
:107810002046E117890F091889108900611AB942B9
:10782000E8DCE117890F091889108900611A00291D
:1078300005DDAA00019950180099FFF707FE05B071
:10784000F0BD0000CCB00025002600200890079075
:1078500006900590049000240390029001900090FF
:1078600000F08CF900F0AEF900200690059007902A
:1078700004900390029000BFA749886200BF00BF38
:107880005320000600680721090288435321090696
:10789000086008460068FF210131084353210906AA
:1078A000086000BF00BF00209B49886300BF00BF85
:1078B000A720C0050068072109068843A721C9053C
:1078C000086008460068012109060843A721C90588
:1078D000086000BF00BF00208F494031C86000BF72
:1078E00000BF152080060068072109038843152181
:1078F000890608600846006801210903084315212C
:107900008906086000BF0846806808218843152161
:1079100089068860FFE015208006806840084000E6
:10792000401C1521890688600398401C80B2039092
:107930007A490398884225DD0B2E23D068460078CB
:1079400000281FD1A720C005806840218843A721B7
:10795000C90588601521890689680907C90FC943C7
:10796000C9000822114008461521890689689143FB
:107970000143152292069160002003900298401C5A
:1079800080B202900298642801DDFFF783FD64480D
:107990000088401C62490880084600886149884286
:1079A00009DB00205E4908805F480088242802DA4D
:1079B00000205D4908805D480078552802D00020ED
:1079C000594908805848008806280ED15748407801
:1079D000AA280AD15548C678007900025349497946
:1079E0004018001F84B2012001904F4801882046B2
:1079F0000B3081428EDB019801288BD14B48007AF5
:107A000000024A49497A401880B2049020460A3060
:107A100081B24648FFF7D8FC0890444920460A3016
:107A2000095C0898814272D1A720C0058068402176
:107A300088434030A721C90588600A2E1CD1012047
:107A40000090012269460720800600F0F7F8002028
:107A50000790002505E02846FFF7C4FCFF35FF35F9
:107A6000023533488542F6D900200490069008215B
:107A7000304800F063F844E00B2E40D1069904989A
:107A800088423ED1059800283BD1284F0A37012370
:107A90003A4621460798FFF781FE012309AA2146AD
:107AA0000798FFF74BFD224609A93846FFF777FCF8
:107AB000002826D10721204800F040F80698001938
:107AC00080B206901521890689680907C90FC94344
:107AD000C90008221140084615218906896891438A
:107AE000014315229206916007980019079007211B
:107AF00009030498884204D1FFF7CCFC01E0FFF7AA
:107B0000C9FC002008490880019004E0FFE700203C
:107B1000054908800190FEE680000050577700007C
:107B20001800002070170000060000203800002018
:107B3000FF6F0000080000201000002030B5044650
:107B40000D46002304E0E05C00F006F8581CC3B2C8
:107B5000AB42F8DB30BD00000021074A11708921DB
:107B6000C905486000BF044909780029FBD00021FD
:107B7000014A1170704700000400002010B500BFDA
:107B800099200F49C86300BF00BF086000BF00BF55
:107B9000486000BF00BF886000BF00BFC86000BF72
:107BA00000BF086100BF0320FFF738FDFFF748FD65
:107BB00000210846FFF70CFD0020FFF727FD10BD50
:107BC000C001005038B54B24E401002003460322D5
:107BD000214600908920C005FFF7C4FD0820FFF76B
:107BE0003DFD8920C005C06A102188438921C9054F
:107BF000C8620846C068012108438921C905C860D8
:107C00000846C068022108438921C905C86000BF31
:107C100002200849886300BF00BFC86300BF03217A
:107C20000F20FFF74FFC0F2001218140024A116015
:107C300000BF38BD4000005000E100E0F0B5C1B029
:107C400005460E46174600200090FF21013101A88D
:107C5000FFF7C0FAE805C00D0090002301AAFF213C
:107C6000013107208006FFF769FC002407E0325D40
:107C70000098411C009101A90A54601C84B2BC42C6
:107C8000F5DB07208006FFF7ADFB002301AAFF21EB
:107C9000013107208006FFF781FD41B0F0BD0000F3
:107CA000C07C0000000000203800000004710000CB
:107CB000F87C0000380000207009000020710000EE
:107CC000000000000000000055AA030A0001000D9A
:107CD00055AA030B00000D0000000000006CDC0240
:107CE000006CDC02000000000090D00300000000E7
:087CF00000000000006CDC0242
:04000005000070C1C6
:00000001FF
